{
  "contractName": "Voting",
  "abi": [
    {
      "anonymous": false,
      "inputs": [
        {
          "indexed": true,
          "internalType": "address",
          "name": "previousOwner",
          "type": "address"
        },
        {
          "indexed": true,
          "internalType": "address",
          "name": "newOwner",
          "type": "address"
        }
      ],
      "name": "OwnershipTransferred",
      "type": "event"
    },
    {
      "anonymous": false,
      "inputs": [
        {
          "indexed": false,
          "internalType": "uint256",
          "name": "proposalId",
          "type": "uint256"
        }
      ],
      "name": "ProposalRegistered",
      "type": "event"
    },
    {
      "anonymous": false,
      "inputs": [],
      "name": "ProposalsRegistrationEnded",
      "type": "event"
    },
    {
      "anonymous": false,
      "inputs": [],
      "name": "ProposalsRegistrationStarted",
      "type": "event"
    },
    {
      "anonymous": false,
      "inputs": [
        {
          "indexed": false,
          "internalType": "address",
          "name": "voter",
          "type": "address"
        },
        {
          "indexed": false,
          "internalType": "uint256",
          "name": "proposalId",
          "type": "uint256"
        }
      ],
      "name": "Voted",
      "type": "event"
    },
    {
      "anonymous": false,
      "inputs": [
        {
          "indexed": false,
          "internalType": "address",
          "name": "voterAddress",
          "type": "address"
        }
      ],
      "name": "VoterRegistered",
      "type": "event"
    },
    {
      "anonymous": false,
      "inputs": [],
      "name": "VotesTallied",
      "type": "event"
    },
    {
      "anonymous": false,
      "inputs": [],
      "name": "VotingSessionEnded",
      "type": "event"
    },
    {
      "anonymous": false,
      "inputs": [],
      "name": "VotingSessionStarted",
      "type": "event"
    },
    {
      "anonymous": false,
      "inputs": [
        {
          "indexed": false,
          "internalType": "enum Voting.WorkflowStatus",
          "name": "previousStatus",
          "type": "uint8"
        },
        {
          "indexed": false,
          "internalType": "enum Voting.WorkflowStatus",
          "name": "newStatus",
          "type": "uint8"
        }
      ],
      "name": "WorkflowStatusChange",
      "type": "event"
    },
    {
      "inputs": [],
      "name": "owner",
      "outputs": [
        {
          "internalType": "address",
          "name": "",
          "type": "address"
        }
      ],
      "stateMutability": "view",
      "type": "function",
      "constant": true
    },
    {
      "inputs": [],
      "name": "renounceOwnership",
      "outputs": [],
      "stateMutability": "nonpayable",
      "type": "function"
    },
    {
      "inputs": [
        {
          "internalType": "address",
          "name": "newOwner",
          "type": "address"
        }
      ],
      "name": "transferOwnership",
      "outputs": [],
      "stateMutability": "nonpayable",
      "type": "function"
    },
    {
      "inputs": [
        {
          "internalType": "address",
          "name": "_address",
          "type": "address"
        }
      ],
      "name": "registerToVote",
      "outputs": [],
      "stateMutability": "nonpayable",
      "type": "function"
    },
    {
      "inputs": [],
      "name": "openProposalRegistration",
      "outputs": [],
      "stateMutability": "nonpayable",
      "type": "function"
    },
    {
      "inputs": [
        {
          "internalType": "string",
          "name": "_description",
          "type": "string"
        }
      ],
      "name": "sendYourProposition",
      "outputs": [],
      "stateMutability": "nonpayable",
      "type": "function"
    },
    {
      "inputs": [],
      "name": "closeProposalRegistration",
      "outputs": [],
      "stateMutability": "nonpayable",
      "type": "function"
    },
    {
      "inputs": [],
      "name": "openVoteSession",
      "outputs": [],
      "stateMutability": "nonpayable",
      "type": "function"
    },
    {
      "inputs": [
        {
          "internalType": "uint256",
          "name": "_proposalId",
          "type": "uint256"
        }
      ],
      "name": "voteFor",
      "outputs": [
        {
          "internalType": "uint256",
          "name": "",
          "type": "uint256"
        }
      ],
      "stateMutability": "nonpayable",
      "type": "function"
    },
    {
      "inputs": [],
      "name": "closeVoteSession",
      "outputs": [],
      "stateMutability": "nonpayable",
      "type": "function"
    },
    {
      "inputs": [],
      "name": "countVotes",
      "outputs": [],
      "stateMutability": "nonpayable",
      "type": "function"
    },
    {
      "inputs": [],
      "name": "winner",
      "outputs": [
        {
          "internalType": "uint256",
          "name": "",
          "type": "uint256"
        },
        {
          "internalType": "string",
          "name": "",
          "type": "string"
        }
      ],
      "stateMutability": "view",
      "type": "function",
      "constant": true
    },
    {
      "inputs": [],
      "name": "getStatus",
      "outputs": [
        {
          "internalType": "enum Voting.WorkflowStatus",
          "name": "",
          "type": "uint8"
        }
      ],
      "stateMutability": "view",
      "type": "function",
      "constant": true
    },
    {
      "inputs": [],
      "name": "getPropositionDescription",
      "outputs": [
        {
          "internalType": "string",
          "name": "",
          "type": "string"
        }
      ],
      "stateMutability": "view",
      "type": "function",
      "constant": true
    },
    {
      "inputs": [],
      "name": "getProposalId",
      "outputs": [
        {
          "internalType": "uint256",
          "name": "",
          "type": "uint256"
        }
      ],
      "stateMutability": "view",
      "type": "function",
      "constant": true
    },
    {
      "inputs": [],
      "name": "getNumberOfVotes",
      "outputs": [
        {
          "internalType": "uint256",
          "name": "",
          "type": "uint256"
        }
      ],
      "stateMutability": "view",
      "type": "function",
      "constant": true
    },
    {
      "inputs": [],
      "name": "getWinningProposalId",
      "outputs": [
        {
          "internalType": "uint256",
          "name": "",
          "type": "uint256"
        }
      ],
      "stateMutability": "view",
      "type": "function",
      "constant": true
    }
  ],
  "bytecode": "0x608060405234801561001057600080fd5b5061001a3361001f565b61006f565b600080546001600160a01b038381166001600160a01b0319831681178455604051919092169283917f8be0079c531659141344cd1fd0a4f28419497f9722a3daafe3b4186f6b6457e09190a35050565b6111488061007e6000396000f3fe608060405234801561001057600080fd5b506004361061010b5760003560e01c80638da5cb5b116100a2578063cee024dc11610071578063cee024dc146101cd578063d68c1121146101d5578063dfbf53ae146101e8578063e81e977b146101fe578063f2fde38b1461020657600080fd5b80638da5cb5b1461019a578063ab014bda146101b5578063b2c63487146101bd578063b647990a146101c557600080fd5b8063532c27b8116100de578063532c27b814610165578063715018a6146101775780637d919f681461017f57806386a505351461018757600080fd5b806307fa315f146101105780630c0603841461011a5780633ac41ba3146101385780634e69d5601461014b575b600080fd5b610118610219565b005b6101226102d6565b60405161012f9190610feb565b60405180910390f35b610118610146366004610e5f565b610368565b600054600160a01b900460ff1660405161012f9190610fbc565b6004545b60405190815260200161012f565b6101186104c6565b6101186104fc565b610169610195366004610f37565b6105a6565b6000546040516001600160a01b03909116815260200161012f565b6101186107a3565b610118610870565b610118610916565b600554610169565b6101186101e3366004610e8d565b610a1a565b6101f0610b58565b60405161012f929190611059565b600654610169565b610118610214366004610e5f565b610c60565b6000546001600160a01b0316331461024c5760405162461bcd60e51b815260040161024390610ffe565b60405180910390fd5b6001600054600160a01b900460ff16600581111561027a57634e487b7160e01b600052602160045260246000fd5b146102975760405162461bcd60e51b815260040161024390611033565b6000805460ff60a01b1916600160a11b1790556040516000805160206110f3833981519152906102cc90600190600290610fd0565b60405180910390a1565b6060600380546102e59061107a565b80601f01602080910402602001604051908101604052809291908181526020018280546103119061107a565b801561035e5780601f106103335761010080835404028352916020019161035e565b820191906000526020600020905b81548152906001019060200180831161034157829003601f168201915b5050505050905090565b6000546001600160a01b031633146103925760405162461bcd60e51b815260040161024390610ffe565b60008054600160a01b900460ff1660058111156103bf57634e487b7160e01b600052602160045260246000fd5b146104015760405162461bcd60e51b8152602060048201526012602482015271149959da5cdd195c9a5b99c818db1bdcd95960721b6044820152606401610243565b6001600160a01b03811660009081526001602052604090205460ff161561046a5760405162461bcd60e51b815260206004820152601860248201527f566f74657220616c7265616479207265676973746572656400000000000000006044820152606401610243565b6001600160a01b038116600081815260016020818152604092839020805460ff191690921790915590519182527fb6be2187d059cc2a55fe29e0e503b566e1e0f8c8780096e185429350acffd3dd91015b60405180910390a150565b6000546001600160a01b031633146104f05760405162461bcd60e51b815260040161024390610ffe565b6104fa6000610cfb565b565b6000546001600160a01b031633146105265760405162461bcd60e51b815260040161024390610ffe565b6003600054600160a01b900460ff16600581111561055457634e487b7160e01b600052602160045260246000fd5b146105715760405162461bcd60e51b815260040161024390611033565b6000805460ff60a01b1916600160a21b1790556040516000805160206110f3833981519152906102cc90600390600490610fd0565b60006003600054600160a01b900460ff1660058111156105d657634e487b7160e01b600052602160045260246000fd5b1461061b5760405162461bcd60e51b8152602060048201526015602482015274159bdd1a5b99c81cd95cdcda5bdb8818db1bdcd959605a1b6044820152606401610243565b3360009081526001602052604090205460ff1661067a5760405162461bcd60e51b815260206004820152601960248201527f556e726567697374657265642c2063616e6e6f7420766f7465000000000000006044820152606401610243565b33600090815260016020526040902054610100900460ff16156106cf5760405162461bcd60e51b815260206004820152600d60248201526c105b1c9958591e481d9bdd1959609a1b6044820152606401610243565b336000908152600160208181526040808420808401879055805461ff001916610100179055858452600290915282200180549161070b836110b5565b90915550506005546000838152600260205260409020600101541115610762576000828152600260205260409020600181015460055560068390558054600391906107559061107a565b610760929190610d4b565b505b60408051338152602081018490527f4d99b957a2bc29a30ebd96a7be8e68fe50a3c701db28a91436490b7d53870ca4910160405180910390a1505060065490565b6000546001600160a01b031633146107cd5760405162461bcd60e51b815260040161024390610ffe565b6002600054600160a01b900460ff1660058111156107fb57634e487b7160e01b600052602160045260246000fd5b1461083b5760405162461bcd60e51b815260206004820152601060248201526f4e6f742079657420706f737369626c6560801b6044820152606401610243565b6000805460ff60a01b1916600360a01b1790556040516000805160206110f3833981519152906102cc90600290600390610fd0565b6000546001600160a01b0316331461089a5760405162461bcd60e51b815260040161024390610ffe565b60008054600160a01b900460ff1660058111156108c757634e487b7160e01b600052602160045260246000fd5b146108e45760405162461bcd60e51b815260040161024390611033565b6000805460ff60a01b1916600160a01b1781556040516000805160206110f3833981519152916102cc91600190610fd0565b6000546001600160a01b031633146109405760405162461bcd60e51b815260040161024390610ffe565b6004600054600160a01b900460ff16600581111561096e57634e487b7160e01b600052602160045260246000fd5b146109b25760405162461bcd60e51b8152602060048201526014602482015273139bdd1a1a5b99c81d1bc818dbdd5b9d081e595d60621b6044820152606401610243565b6000805460ff60a01b1916600560a01b1790556040516000805160206110f3833981519152906109e790600490600590610fd0565b60405180910390a16040517f0e5e95ff8725ab3e7a4b6b59998a4c344c2aa8d1485f5e60cb7f337768e6134790600090a1565b6001600054600160a01b900460ff166005811115610a4857634e487b7160e01b600052602160045260246000fd5b14610a955760405162461bcd60e51b815260206004820152601760248201527f50726f706f73616c2073657373696f6e20636c6f7365640000000000000000006044820152606401610243565b3360009081526001602052604090205460ff16610aed5760405162461bcd60e51b8152602060048201526016602482015275165bdd48185c99481b9bdd081c9959da5cdd195c995960521b6044820152606401610243565b60048054906000610afd836110b5565b909155505060045460009081526002602090815260409091208251610b2492840190610dd6565b507f92e393e9b54e2f801d3ea4beb0c5e71a21cc34a5d34b77d0fb8a3aa1650dc18f6004546040516104bb91815260200190565b600060606005600054600160a01b900460ff166005811115610b8a57634e487b7160e01b600052602160045260246000fd5b14610bc75760405162461bcd60e51b815260206004820152600d60248201526c139bc81dda5b9b995c881e595d609a1b6044820152606401610243565b6006546003808054610bd89061107a565b80601f0160208091040260200160405190810160405280929190818152602001828054610c049061107a565b8015610c515780601f10610c2657610100808354040283529160200191610c51565b820191906000526020600020905b815481529060010190602001808311610c3457829003601f168201915b50505050509050915091509091565b6000546001600160a01b03163314610c8a5760405162461bcd60e51b815260040161024390610ffe565b6001600160a01b038116610cef5760405162461bcd60e51b815260206004820152602660248201527f4f776e61626c653a206e6577206f776e657220697320746865207a65726f206160448201526564647265737360d01b6064820152608401610243565b610cf881610cfb565b50565b600080546001600160a01b038381166001600160a01b0319831681178455604051919092169283917f8be0079c531659141344cd1fd0a4f28419497f9722a3daafe3b4186f6b6457e09190a35050565b828054610d579061107a565b90600052602060002090601f016020900481019282610d795760008555610dc6565b82601f10610d8a5780548555610dc6565b82800160010185558215610dc657600052602060002091601f016020900482015b82811115610dc6578254825591600101919060010190610dab565b50610dd2929150610e4a565b5090565b828054610de29061107a565b90600052602060002090601f016020900481019282610e045760008555610dc6565b82601f10610e1d57805160ff1916838001178555610dc6565b82800160010185558215610dc6579182015b82811115610dc6578251825591602001919060010190610e2f565b5b80821115610dd25760008155600101610e4b565b600060208284031215610e70578081fd5b81356001600160a01b0381168114610e86578182fd5b9392505050565b600060208284031215610e9e578081fd5b813567ffffffffffffffff80821115610eb5578283fd5b818401915084601f830112610ec8578283fd5b813581811115610eda57610eda6110dc565b604051601f8201601f19908116603f01168101908382118183101715610f0257610f026110dc565b81604052828152876020848701011115610f1a578586fd5b826020860160208301379182016020019490945295945050505050565b600060208284031215610f48578081fd5b5035919050565b60068110610f6d57634e487b7160e01b600052602160045260246000fd5b9052565b60008151808452815b81811015610f9657602081850181015186830182015201610f7a565b81811115610fa75782602083870101525b50601f01601f19169290920160200192915050565b60208101610fca8284610f4f565b92915050565b60408101610fde8285610f4f565b610e866020830184610f4f565b602081526000610e866020830184610f71565b6020808252818101527f4f776e61626c653a2063616c6c6572206973206e6f7420746865206f776e6572604082015260600190565b6020808252600c908201526b2737ba103cb2ba1037b832b760a11b604082015260600190565b8281526040602082015260006110726040830184610f71565b949350505050565b600181811c9082168061108e57607f821691505b602082108114156110af57634e487b7160e01b600052602260045260246000fd5b50919050565b60006000198214156110d557634e487b7160e01b81526011600452602481fd5b5060010190565b634e487b7160e01b600052604160045260246000fdfe0a97a4ee45751e2abf3e4fc8946939630b11b371ea8ae39ccdc3056e98f5cc3fa2646970667358221220a29653c776666f94ca7bf689cdea946dc3528c32023f63a20bcee37b0c5607ae64736f6c63430008040033",
  "immutableReferences": {},
  "source": " // SPDX-License-Identifier: GPL-3.0\npragma solidity 0.8.4;\n\n// import \"https://github.com/OpenZeppelin/openzeppelin-contracts/blob/release-v3.0.0/contracts/access/Ownable.sol\";\nimport \"@OpenZeppelin/contracts/access/Ownable.sol\";\n\ncontract Voting is Ownable {\n\n    struct Voter {\n        bool isRegistered;\n        bool hasVoted;\n        uint votedProposalId;\n    }\n\n    struct Proposal {\n        string description;\n        uint voteCount;\n    }\n\n    enum WorkflowStatus {\n        RegisteringVoters,\n        ProposalsRegistrationStarted,\n        ProposalsRegistrationEnded,\n        VotingSessionStarted,\n        VotingSessionEnded,\n        VotesTallied\n    }\n\n    WorkflowStatus status;\n\n    event VoterRegistered(address voterAddress);\n    event ProposalsRegistrationStarted();\n    event ProposalsRegistrationEnded();\n    event ProposalRegistered(uint proposalId);\n    event VotingSessionStarted();\n    event VotingSessionEnded();\n    event Voted (address voter, uint proposalId);\n    event VotesTallied();\n    event WorkflowStatusChange(WorkflowStatus previousStatus, WorkflowStatus newStatus);\n\n    mapping(address => Voter) voters;\n    mapping(uint => Proposal) proposals;\n    string desc;\n    uint proposalId;\n    uint nbrVotes;\n    uint winningProposalId;\n\n    /// @dev contract's owner registers voters adding address to a whitelist\n    function registerToVote(address _address) public onlyOwner {\n        require(status == WorkflowStatus.RegisteringVoters, \"Registering closed\");\n        require(!voters[_address].isRegistered, \"Voter already registered\");\n\n        voters[_address].isRegistered = true;\n\n        emit VoterRegistered(_address);\n    }\n\n    /// @dev owner starts the proposal registration session\n    function openProposalRegistration() public onlyOwner {\n        require(status == WorkflowStatus.RegisteringVoters, \"Not yet open\");\n        status = WorkflowStatus.ProposalsRegistrationStarted;\n        emit WorkflowStatusChange(WorkflowStatus.RegisteringVoters, WorkflowStatus.ProposalsRegistrationStarted);\n    }\n\n    /// @dev registered voters can send their proposition while the session is open\n    /// @param _description string is proposal's description\n    function sendYourProposition(string memory _description) public {\n        require(status == WorkflowStatus.ProposalsRegistrationStarted, \"Proposal session closed\");\n        require(voters[msg.sender].isRegistered, \"You are not registered\");\n\n        proposalId++;\n        proposals[proposalId].description = _description;\n\n        emit ProposalRegistered(proposalId);\n    }\n\n    /// @dev contract's owner ends the proposal registration session\n    function closeProposalRegistration() public onlyOwner {\n        require(status == WorkflowStatus.ProposalsRegistrationStarted, \"Not yet open\");\n        status = WorkflowStatus.ProposalsRegistrationEnded;\n        emit WorkflowStatusChange(WorkflowStatus.ProposalsRegistrationStarted, WorkflowStatus.ProposalsRegistrationEnded);\n    }\n\n    /// @dev contract's owner starts the proposal voting session\n    function openVoteSession() public onlyOwner {\n        require(status == WorkflowStatus.ProposalsRegistrationEnded, \"Not yet possible\");\n        status = WorkflowStatus.VotingSessionStarted;\n        emit WorkflowStatusChange(WorkflowStatus.ProposalsRegistrationEnded, WorkflowStatus.VotingSessionStarted);\n    }\n\n    /// @dev registered voters vote for their favorite proposition\n    /// @notice nbrVotes holds current max count, if new vote get higher value, it replaces it & proposal ID is stored in winningProposalId\n    /// @notice desc holds description string corresponding to nbrVotes\n    function voteFor(uint _proposalId) public returns (uint) {\n        require(status == WorkflowStatus.VotingSessionStarted, \"Voting session closed\");\n        require(voters[msg.sender].isRegistered, \"Unregistered, cannot vote\");\n        require(!voters[msg.sender].hasVoted, \"Already voted\");\n\n        voters[msg.sender].votedProposalId = _proposalId;\n        voters[msg.sender].hasVoted = true;\n\n        proposals[_proposalId].voteCount++;\n\n        if (proposals[_proposalId].voteCount > nbrVotes) {\n            nbrVotes = proposals[_proposalId].voteCount;\n            winningProposalId = _proposalId;\n            desc = proposals[_proposalId].description;\n        }\n\n        emit Voted(msg.sender, _proposalId);\n        return winningProposalId;\n    }\n\n    /// @dev contract's owner ends the proposal voting session\n    function closeVoteSession() public onlyOwner {\n        require(status == WorkflowStatus.VotingSessionStarted, \"Not yet open\");\n        status = WorkflowStatus.VotingSessionEnded;\n\n        emit WorkflowStatusChange(WorkflowStatus.VotingSessionStarted, WorkflowStatus.VotingSessionEnded);\n    }\n\n    /// @dev contract's owner ends voting session\n    /// @notice winning proposal ID is officially the winningProposalId value already set\n    function countVotes() public onlyOwner {\n        require(status == WorkflowStatus.VotingSessionEnded, \"Nothing to count yet\");\n        status = WorkflowStatus.VotesTallied;\n        emit WorkflowStatusChange(WorkflowStatus.VotingSessionEnded, WorkflowStatus.VotesTallied);\n        emit VotesTallied();\n    }\n\n    /// @dev proposition ID is publically viewable once session has ended\n    /// @return winning proposition ID and corresponding description string\n    function winner() public view returns (uint, string memory) {\n        require(status == WorkflowStatus.VotesTallied, \"No winner yet\");\n\n        return (winningProposalId, desc);\n    }\n\n    /// @dev get status for handling the corresponding UI components\n    function getStatus() public view returns (WorkflowStatus) {\n      return status;\n    }\n\n    /// @dev get winning proposition description to return to the UI\n    function getPropositionDescription() public view returns (string memory) {\n      return desc;\n    }\n\n    /// @dev get submitted proposition ID to return to the UI\n    function getProposalId() public view returns (uint) {\n      return proposalId;\n    }\n\n    /// @dev get number of votes to return to the UI\n    function getNumberOfVotes() public view returns (uint) {\n      return nbrVotes;\n    }\n\n    /// @dev get winning proposition ID to return to the UI\n    function getWinningProposalId() public view returns (uint) {\n      return winningProposalId;\n    }\n\n}\n",
  "sourcePath": "/Users/nckmcfls/code-alyra/defi/contracts/Voting.sol",
  "compiler": {
    "name": "solc",
    "version": "0.8.4+commit.c7e474f2.Emscripten.clang"
  },
  "schemaVersion": "3.4.2",
  "updatedAt": "2021-08-07T13:17:15.819Z",
  "networkType": "ethereum",
  "devdoc": {
    "kind": "dev",
    "methods": {
      "closeProposalRegistration()": {
        "details": "contract's owner ends the proposal registration session"
      },
      "closeVoteSession()": {
        "details": "contract's owner ends the proposal voting session"
      },
      "countVotes()": {
        "details": "contract's owner ends voting session"
      },
      "getNumberOfVotes()": {
        "details": "get number of votes to return to the UI"
      },
      "getProposalId()": {
        "details": "get submitted proposition ID to return to the UI"
      },
      "getPropositionDescription()": {
        "details": "get winning proposition description to return to the UI"
      },
      "getStatus()": {
        "details": "get status for handling the corresponding UI components"
      },
      "getWinningProposalId()": {
        "details": "get winning proposition ID to return to the UI"
      },
      "openProposalRegistration()": {
        "details": "owner starts the proposal registration session"
      },
      "openVoteSession()": {
        "details": "contract's owner starts the proposal voting session"
      },
      "owner()": {
        "details": "Returns the address of the current owner."
      },
      "registerToVote(address)": {
        "details": "contract's owner registers voters adding address to a whitelist"
      },
      "renounceOwnership()": {
        "details": "Leaves the contract without owner. It will not be possible to call `onlyOwner` functions anymore. Can only be called by the current owner. NOTE: Renouncing ownership will leave the contract without an owner, thereby removing any functionality that is only available to the owner."
      },
      "sendYourProposition(string)": {
        "details": "registered voters can send their proposition while the session is open",
        "params": {
          "_description": "string is proposal's description"
        }
      },
      "transferOwnership(address)": {
        "details": "Transfers ownership of the contract to a new account (`newOwner`). Can only be called by the current owner."
      },
      "voteFor(uint256)": {
        "details": "registered voters vote for their favorite proposition"
      },
      "winner()": {
        "details": "proposition ID is publically viewable once session has ended",
        "returns": {
          "_0": "winning proposition ID and corresponding description string"
        }
      }
    },
    "version": 1
  },
  "userdoc": {
    "kind": "user",
    "methods": {
      "countVotes()": {
        "notice": "winning proposal ID is officially the winningProposalId value already set"
      },
      "voteFor(uint256)": {
        "notice": "nbrVotes holds current max count, if new vote get higher value, it replaces it & proposal ID is stored in winningProposalIddesc holds description string corresponding to nbrVotes"
      }
    },
    "version": 1
  }
}